{
  "contractName": "Escrow",
  "abi": [
    {
      "inputs": [],
      "stateMutability": "nonpayable",
      "type": "constructor"
    },
    {
      "inputs": [
        {
          "internalType": "address",
          "name": "",
          "type": "address"
        }
      ],
      "name": "deposits",
      "outputs": [
        {
          "internalType": "uint256",
          "name": "",
          "type": "uint256"
        }
      ],
      "stateMutability": "view",
      "type": "function"
    },
    {
      "inputs": [
        {
          "internalType": "address",
          "name": "seller",
          "type": "address"
        }
      ],
      "name": "deposit",
      "outputs": [],
      "stateMutability": "payable",
      "type": "function"
    },
    {
      "inputs": [
        {
          "internalType": "address payable",
          "name": "seller",
          "type": "address"
        }
      ],
      "name": "withdraw",
      "outputs": [],
      "stateMutability": "nonpayable",
      "type": "function"
    }
  ],
  "bytecode": "0x608060405234801561001057600080fd5b50336000806101000a81548173ffffffffffffffffffffffffffffffffffffffff021916908373ffffffffffffffffffffffffffffffffffffffff160217905550610473806100606000396000f3fe6080604052600436106100345760003560e01c806351cff8d914610039578063f340fa0114610062578063fc7e286d1461007e575b600080fd5b34801561004557600080fd5b50610060600480360381019061005b91906102e9565b6100bb565b005b61007c600480360381019061007791906102c0565b6101e7565b005b34801561008a57600080fd5b506100a560048036038101906100a091906102c0565b61027e565b6040516100b29190610321565b60405180910390f35b60008054906101000a900473ffffffffffffffffffffffffffffffffffffffff1673ffffffffffffffffffffffffffffffffffffffff163373ffffffffffffffffffffffffffffffffffffffff161461011357600080fd5b6000600160008373ffffffffffffffffffffffffffffffffffffffff1673ffffffffffffffffffffffffffffffffffffffff1681526020019081526020016000205490506000600160008473ffffffffffffffffffffffffffffffffffffffff1673ffffffffffffffffffffffffffffffffffffffff168152602001908152602001600020819055508173ffffffffffffffffffffffffffffffffffffffff166108fc829081150290604051600060405180830381858888f193505050501580156101e2573d6000803e3d6000fd5b505050565b600034905080600160008473ffffffffffffffffffffffffffffffffffffffff1673ffffffffffffffffffffffffffffffffffffffff16815260200190815260200160002054610237919061033c565b600160008473ffffffffffffffffffffffffffffffffffffffff1673ffffffffffffffffffffffffffffffffffffffff168152602001908152602001600020819055505050565b60016020528060005260406000206000915090505481565b6000813590506102a58161040f565b92915050565b6000813590506102ba81610426565b92915050565b6000602082840312156102d257600080fd5b60006102e084828501610296565b91505092915050565b6000602082840312156102fb57600080fd5b6000610309848285016102ab565b91505092915050565b61031b816103d6565b82525050565b60006020820190506103366000830184610312565b92915050565b6000610347826103d6565b9150610352836103d6565b9250827fffffffffffffffffffffffffffffffffffffffffffffffffffffffffffffffff03821115610387576103866103e0565b5b828201905092915050565b600061039d826103b6565b9050919050565b60006103af826103b6565b9050919050565b600073ffffffffffffffffffffffffffffffffffffffff82169050919050565b6000819050919050565b7f4e487b7100000000000000000000000000000000000000000000000000000000600052601160045260246000fd5b61041881610392565b811461042357600080fd5b50565b61042f816103a4565b811461043a57600080fd5b5056fea2646970667358221220ecb30c2de2e2f17bebc5597f14ec11f02d6763f811f07907f656f00209fb2e6b64736f6c63430008000033",
  "immutableReferences": {},
  "source": "pragma solidity 0.8.0;\r\n\r\ncontract Escrow{\r\n\r\n    address agent;\r\n\r\n    mapping (address => uint256) public deposits;\r\n\r\n    modifier onlyAgent(){\r\n        require(msg.sender == agent);\r\n        _;\r\n    }\r\n\r\n    constructor() {\r\n        agent = msg.sender;\r\n    }\r\n\r\n    function deposit(address seller) public payable {\r\n        uint256 amount = msg.value;\r\n        deposits[seller] = deposits[seller] + amount;\r\n    }\r\n\r\n    function withdraw(address payable seller) public onlyAgent {\r\n        uint256 payment = deposits[seller];\r\n        deposits[seller] = 0;\r\n        seller.transfer(payment);\r\n    }\r\n\r\n}",
  "sourcePath": "C:/Users/marcg/OneDrive/Bureau/ESGI/Blockchain/blockchainBack/contracts/Escrow.sol",
  "compiler": {
    "name": "solc",
    "version": "0.8.0+commit.c7dfd78e.Emscripten.clang"
  },
  "schemaVersion": "3.3.3",
  "updatedAt": "2021-01-08T10:17:47.698Z",
  "devdoc": {
    "kind": "dev",
    "methods": {},
    "version": 1
  },
  "userdoc": {
    "kind": "user",
    "methods": {},
    "version": 1
  }
}