{
  "contractName": "EstateFactory",
  "abi": [
    {
      "constant": false,
      "inputs": [
        {
          "internalType": "uint8",
          "name": "_surface",
          "type": "uint8"
        },
        {
          "internalType": "string",
          "name": "_category",
          "type": "string"
        },
        {
          "internalType": "uint8",
          "name": "_nbRoom",
          "type": "uint8"
        },
        {
          "internalType": "uint8",
          "name": "_nbBedRoom",
          "type": "uint8"
        },
        {
          "internalType": "string",
          "name": "_about",
          "type": "string"
        },
        {
          "internalType": "string",
          "name": "_title",
          "type": "string"
        },
        {
          "components": [
            {
              "internalType": "string",
              "name": "rue",
              "type": "string"
            },
            {
              "internalType": "string",
              "name": "nom",
              "type": "string"
            },
            {
              "internalType": "string",
              "name": "codePostale",
              "type": "string"
            },
            {
              "internalType": "string",
              "name": "ville",
              "type": "string"
            },
            {
              "internalType": "string",
              "name": "pays",
              "type": "string"
            }
          ],
          "internalType": "struct EstateFactory.Street",
          "name": "_street",
          "type": "tuple"
        },
        {
          "internalType": "uint16",
          "name": "_price",
          "type": "uint16"
        }
      ],
      "name": "createEstate",
      "outputs": [],
      "payable": false,
      "stateMutability": "nonpayable",
      "type": "function"
    }
  ],
  "bytecode": "0x608060405234801561001057600080fd5b50610560806100206000396000f3fe608060405234801561001057600080fd5b506004361061002b5760003560e01c8063f5a5dd2b14610030575b600080fd5b61004a6004803603610045919081019061032e565b61004c565b005b6100546100ce565b88816000019060ff16908160ff168152505087816020018190525086816040019060ff16908160ff168152505085816060019060ff16908160ff1681525050848160a00181905250838160c00181905250828160e001819052508181610100019061ffff16908161ffff1681525050505050505050505050565b604051806101200160405280600060ff16815260200160608152602001600060ff168152602001600060ff16815260200160608152602001606081526020016060815260200161011c61012d565b8152602001600061ffff1681525090565b6040518060a0016040528060608152602001606081526020016060815260200160608152602001606081525090565b600082601f83011261016d57600080fd5b813561018061017b8261046d565b610440565b9150808252602083016020830185838301111561019c57600080fd5b6101a78382846104e0565b50505092915050565b600082601f8301126101c157600080fd5b81356101d46101cf82610499565b610440565b915080825260208301602083018583830111156101f057600080fd5b6101fb8382846104e0565b50505092915050565b600060a0828403121561021657600080fd5b61022060a0610440565b9050600082013567ffffffffffffffff81111561023c57600080fd5b6102488482850161015c565b600083015250602082013567ffffffffffffffff81111561026857600080fd5b6102748482850161015c565b602083015250604082013567ffffffffffffffff81111561029457600080fd5b6102a08482850161015c565b604083015250606082013567ffffffffffffffff8111156102c057600080fd5b6102cc8482850161015c565b606083015250608082013567ffffffffffffffff8111156102ec57600080fd5b6102f88482850161015c565b60808301525092915050565b600081359050610313816104ef565b92915050565b60008135905061032881610506565b92915050565b600080600080600080600080610100898b03121561034b57600080fd5b60006103598b828c01610319565b985050602089013567ffffffffffffffff81111561037657600080fd5b6103828b828c016101b0565b97505060406103938b828c01610319565b96505060606103a48b828c01610319565b955050608089013567ffffffffffffffff8111156103c157600080fd5b6103cd8b828c016101b0565b94505060a089013567ffffffffffffffff8111156103ea57600080fd5b6103f68b828c016101b0565b93505060c089013567ffffffffffffffff81111561041357600080fd5b61041f8b828c01610204565b92505060e06104308b828c01610304565b9150509295985092959890939650565b6000604051905081810181811067ffffffffffffffff8211171561046357600080fd5b8060405250919050565b600067ffffffffffffffff82111561048457600080fd5b601f19601f8301169050602081019050919050565b600067ffffffffffffffff8211156104b057600080fd5b601f19601f8301169050602081019050919050565b600061ffff82169050919050565b600060ff82169050919050565b82818337600083830152505050565b6104f8816104c5565b811461050357600080fd5b50565b61050f816104d3565b811461051a57600080fd5b5056fea365627a7a72315820f1cdc2a86a8e0375f8183159e537b9ec7448979299db8dbbccfe4b19766a06916c6578706572696d656e74616cf564736f6c63430005100040",
  "source": "pragma solidity >=0.4.22 <0.8.0;\r\npragma experimental ABIEncoderV2;\r\n\r\ncontract EstateFactory {\r\n\r\n\r\n    struct Estate{\r\n        uint8  surface;\r\n        string category;\r\n        uint8 nbRoom;\r\n        uint8 nbBedRoom;\r\n        Other[] others;\r\n        string about;\r\n        string title;\r\n        Street street;\r\n\r\n        uint16 price;\r\n\r\n    }\r\n\r\n    struct Other{\r\n        string item;\r\n        string description;\r\n    }\r\n\r\n    struct Street{\r\n        string rue;\r\n        string nom;\r\n        string codePostale;\r\n        string ville;\r\n        string pays;\r\n    }\r\n\r\n    function createEstate( uint8  _surface, string memory  _category, uint8  _nbRoom, uint8 _nbBedRoom,\r\n            string memory  _about, string memory  _title,\r\n            Street memory _street, uint16 _price) public {\r\n\r\n        Estate memory newEstate;\r\n\r\n        newEstate.surface = _surface;\r\n        newEstate.category = _category;\r\n        newEstate.nbRoom = _nbRoom;\r\n        newEstate.nbBedRoom = _nbBedRoom;\r\n        newEstate.about = _about;\r\n        newEstate.title = _title;\r\n        newEstate.street = _street;\r\n        newEstate.price = _price;\r\n\r\n    }\r\n\r\n\r\n\r\n}\r\n",
  "sourcePath": "C:/Users/allou/Desktop/esgiWork/blockchain/projet/back/blockchainBack/contracts/EstateFactory.sol",
  "compiler": {
    "name": "solc",
    "version": "0.5.16+commit.9c3226ce.Emscripten.clang"
  },
  "schemaVersion": "3.3.2",
  "updatedAt": "2020-11-17T18:38:13.568Z",
  "devdoc": {
    "methods": {}
  },
  "userdoc": {
    "methods": {}
  }
}