{
  "contractName": "EstateHelper",
  "abi": [
    {
      "anonymous": false,
      "inputs": [
        {
          "indexed": false,
          "internalType": "uint256",
          "name": "idEstate",
          "type": "uint256"
        },
        {
          "indexed": false,
          "internalType": "uint8",
          "name": "surface",
          "type": "uint8"
        },
        {
          "indexed": false,
          "internalType": "string",
          "name": "category",
          "type": "string"
        },
        {
          "indexed": false,
          "internalType": "uint8",
          "name": "nbRoom",
          "type": "uint8"
        },
        {
          "indexed": false,
          "internalType": "uint8",
          "name": "nbBedRoom",
          "type": "uint8"
        },
        {
          "indexed": false,
          "internalType": "string",
          "name": "about",
          "type": "string"
        },
        {
          "indexed": false,
          "internalType": "uint16",
          "name": "price",
          "type": "uint16"
        },
        {
          "indexed": false,
          "internalType": "string",
          "name": "title",
          "type": "string"
        },
        {
          "indexed": false,
          "internalType": "string",
          "name": "rue",
          "type": "string"
        },
        {
          "indexed": false,
          "internalType": "string",
          "name": "nom",
          "type": "string"
        },
        {
          "indexed": false,
          "internalType": "string",
          "name": "codePostale",
          "type": "string"
        },
        {
          "indexed": false,
          "internalType": "string",
          "name": "ville",
          "type": "string"
        },
        {
          "indexed": false,
          "internalType": "string",
          "name": "pays",
          "type": "string"
        }
      ],
      "name": "NewEstate",
      "type": "event"
    },
    {
      "inputs": [
        {
          "components": [
            {
              "internalType": "uint8",
              "name": "surface",
              "type": "uint8"
            },
            {
              "internalType": "string",
              "name": "category",
              "type": "string"
            },
            {
              "internalType": "uint8",
              "name": "nbRoom",
              "type": "uint8"
            },
            {
              "internalType": "uint8",
              "name": "nbBedRoom",
              "type": "uint8"
            },
            {
              "internalType": "string",
              "name": "description",
              "type": "string"
            },
            {
              "internalType": "string",
              "name": "item",
              "type": "string"
            },
            {
              "internalType": "string",
              "name": "about",
              "type": "string"
            },
            {
              "internalType": "string",
              "name": "title",
              "type": "string"
            },
            {
              "components": [
                {
                  "internalType": "string",
                  "name": "rue",
                  "type": "string"
                },
                {
                  "internalType": "string",
                  "name": "nom",
                  "type": "string"
                },
                {
                  "internalType": "string",
                  "name": "codePostale",
                  "type": "string"
                },
                {
                  "internalType": "string",
                  "name": "ville",
                  "type": "string"
                },
                {
                  "internalType": "string",
                  "name": "pays",
                  "type": "string"
                }
              ],
              "internalType": "struct EstateFactory.Street",
              "name": "street",
              "type": "tuple"
            },
            {
              "internalType": "uint16",
              "name": "price",
              "type": "uint16"
            }
          ],
          "internalType": "struct EstateFactory.Estate",
          "name": "estate",
          "type": "tuple"
        }
      ],
      "name": "createEstate",
      "outputs": [],
      "stateMutability": "nonpayable",
      "type": "function"
    },
    {
      "inputs": [
        {
          "internalType": "uint256",
          "name": "",
          "type": "uint256"
        }
      ],
      "name": "estateToOwner",
      "outputs": [
        {
          "internalType": "address",
          "name": "",
          "type": "address"
        }
      ],
      "stateMutability": "view",
      "type": "function",
      "constant": true
    },
    {
      "inputs": [
        {
          "internalType": "uint256",
          "name": "",
          "type": "uint256"
        }
      ],
      "name": "estates",
      "outputs": [
        {
          "internalType": "uint8",
          "name": "surface",
          "type": "uint8"
        },
        {
          "internalType": "string",
          "name": "category",
          "type": "string"
        },
        {
          "internalType": "uint8",
          "name": "nbRoom",
          "type": "uint8"
        },
        {
          "internalType": "uint8",
          "name": "nbBedRoom",
          "type": "uint8"
        },
        {
          "internalType": "string",
          "name": "description",
          "type": "string"
        },
        {
          "internalType": "string",
          "name": "item",
          "type": "string"
        },
        {
          "internalType": "string",
          "name": "about",
          "type": "string"
        },
        {
          "internalType": "string",
          "name": "title",
          "type": "string"
        },
        {
          "components": [
            {
              "internalType": "string",
              "name": "rue",
              "type": "string"
            },
            {
              "internalType": "string",
              "name": "nom",
              "type": "string"
            },
            {
              "internalType": "string",
              "name": "codePostale",
              "type": "string"
            },
            {
              "internalType": "string",
              "name": "ville",
              "type": "string"
            },
            {
              "internalType": "string",
              "name": "pays",
              "type": "string"
            }
          ],
          "internalType": "struct EstateFactory.Street",
          "name": "street",
          "type": "tuple"
        },
        {
          "internalType": "uint16",
          "name": "price",
          "type": "uint16"
        }
      ],
      "stateMutability": "view",
      "type": "function",
      "constant": true
    },
    {
      "inputs": [
        {
          "internalType": "address",
          "name": "_owner",
          "type": "address"
        }
      ],
      "name": "getEstatesByOwner",
      "outputs": [
        {
          "internalType": "uint256[]",
          "name": "",
          "type": "uint256[]"
        }
      ],
      "stateMutability": "view",
      "type": "function",
      "constant": true
    },
    {
      "inputs": [],
      "name": "test",
      "outputs": [
        {
          "internalType": "address",
          "name": "",
          "type": "address"
        }
      ],
      "stateMutability": "view",
      "type": "function",
      "constant": true
    },
    {
      "inputs": [
        {
          "internalType": "uint256",
          "name": "estateId",
          "type": "uint256"
        }
      ],
      "name": "buyEstateById",
      "outputs": [],
      "stateMutability": "payable",
      "type": "function",
      "payable": true
    }
  ],
  "bytecode": "0x6080604052336000806101000a81548173ffffffffffffffffffffffffffffffffffffffff021916908373ffffffffffffffffffffffffffffffffffffffff16021790555034801561005057600080fd5b50611757806100606000396000f3fe6080604052600436106100555760003560e01c8063482bf1531461005a57806363d40a591461007657806363d4f29a146100b3578063a541027f146100dc578063d70f83c214610119578063f8a8fd6d1461015f575b600080fd5b610074600480360381019061006f919061116a565b61018a565b005b34801561008257600080fd5b5061009d6004803603810190610098919061116a565b6101f6565b6040516100aa9190611349565b60405180910390f35b3480156100bf57600080fd5b506100da60048036038101906100d59190611129565b610229565b005b3480156100e857600080fd5b5061010360048036038101906100fe9190611100565b610553565b6040516101109190611364565b60405180910390f35b34801561012557600080fd5b50610140600480360381019061013b919061116a565b6106f2565b6040516101569a99989796959493929190611386565b60405180910390f35b34801561016b57600080fd5b50610174610d17565b6040516101819190611349565b60405180910390f35b600181815481106101c4577f4e487b7100000000000000000000000000000000000000000000000000000000600052603260045260246000fd5b90600052602060002090600d0201600c0160009054906101000a900461ffff1661ffff1634146101f357600080fd5b50565b60026020528060005260406000206000915054906101000a900473ffffffffffffffffffffffffffffffffffffffff1681565b8060000151816000019060ff16908160ff1681525050806020015181602001819052508060400151816040019060ff16908160ff16815250508060600151816060019060ff16908160ff16815250508060c001518160c001819052508060e001518160e0018190525080610100015181610100018190525080610120015181610120019061ffff16908161ffff168152505060018190806001815401808255809150506001900390600052602060002090600d020160009091909190915060008201518160000160006101000a81548160ff021916908360ff1602179055506020820151816001019080519060200190610324929190610d1f565b5060408201518160020160006101000a81548160ff021916908360ff16021790555060608201518160020160016101000a81548160ff021916908360ff1602179055506080820151816003019080519060200190610383929190610d1f565b5060a08201518160040190805190602001906103a0929190610d1f565b5060c08201518160050190805190602001906103bd929190610d1f565b5060e08201518160060190805190602001906103da929190610d1f565b50610100820151816007016000820151816000019080519060200190610401929190610d1f565b50602082015181600101908051906020019061041e929190610d1f565b50604082015181600201908051906020019061043b929190610d1f565b506060820151816003019080519060200190610458929190610d1f565b506080820151816004019080519060200190610475929190610d1f565b50505061012082015181600c0160006101000a81548161ffff021916908361ffff160217905550505060006001805490509050336002600083815260200190815260200160002060006101000a81548173ffffffffffffffffffffffffffffffffffffffff021916908373ffffffffffffffffffffffffffffffffffffffff160217905550600360003373ffffffffffffffffffffffffffffffffffffffff1673ffffffffffffffffffffffffffffffffffffffff168152602001908152602001600020600081548092919061054a906115de565b91905055505050565b60606000600360008473ffffffffffffffffffffffffffffffffffffffff1673ffffffffffffffffffffffffffffffffffffffff1681526020019081526020016000205467ffffffffffffffff8111156105d6577f4e487b7100000000000000000000000000000000000000000000000000000000600052604160045260246000fd5b6040519080825280602002602001820160405280156106045781602001602082028036833780820191505090505b5090506000805b6001805490508110156106e7578473ffffffffffffffffffffffffffffffffffffffff166002600083815260200190815260200160002060009054906101000a900473ffffffffffffffffffffffffffffffffffffffff1673ffffffffffffffffffffffffffffffffffffffff1614156106d457808383815181106106b9577f4e487b7100000000000000000000000000000000000000000000000000000000600052603260045260246000fd5b60200260200101818152505081806106d0906115de565b9250505b80806106df906115de565b91505061060b565b508192505050919050565b6001818154811061070257600080fd5b90600052602060002090600d02016000915090508060000160009054906101000a900460ff1690806001018054610738906115ac565b80601f0160208091040260200160405190810160405280929190818152602001828054610764906115ac565b80156107b15780601f10610786576101008083540402835291602001916107b1565b820191906000526020600020905b81548152906001019060200180831161079457829003601f168201915b5050505050908060020160009054906101000a900460ff16908060020160019054906101000a900460ff16908060030180546107ec906115ac565b80601f0160208091040260200160405190810160405280929190818152602001828054610818906115ac565b80156108655780601f1061083a57610100808354040283529160200191610865565b820191906000526020600020905b81548152906001019060200180831161084857829003601f168201915b50505050509080600401805461087a906115ac565b80601f01602080910402602001604051908101604052809291908181526020018280546108a6906115ac565b80156108f35780601f106108c8576101008083540402835291602001916108f3565b820191906000526020600020905b8154815290600101906020018083116108d657829003601f168201915b505050505090806005018054610908906115ac565b80601f0160208091040260200160405190810160405280929190818152602001828054610934906115ac565b80156109815780601f1061095657610100808354040283529160200191610981565b820191906000526020600020905b81548152906001019060200180831161096457829003601f168201915b505050505090806006018054610996906115ac565b80601f01602080910402602001604051908101604052809291908181526020018280546109c2906115ac565b8015610a0f5780601f106109e457610100808354040283529160200191610a0f565b820191906000526020600020905b8154815290600101906020018083116109f257829003601f168201915b505050505090806007016040518060a0016040529081600082018054610a34906115ac565b80601f0160208091040260200160405190810160405280929190818152602001828054610a60906115ac565b8015610aad5780601f10610a8257610100808354040283529160200191610aad565b820191906000526020600020905b815481529060010190602001808311610a9057829003601f168201915b50505050508152602001600182018054610ac6906115ac565b80601f0160208091040260200160405190810160405280929190818152602001828054610af2906115ac565b8015610b3f5780601f10610b1457610100808354040283529160200191610b3f565b820191906000526020600020905b815481529060010190602001808311610b2257829003601f168201915b50505050508152602001600282018054610b58906115ac565b80601f0160208091040260200160405190810160405280929190818152602001828054610b84906115ac565b8015610bd15780601f10610ba657610100808354040283529160200191610bd1565b820191906000526020600020905b815481529060010190602001808311610bb457829003601f168201915b50505050508152602001600382018054610bea906115ac565b80601f0160208091040260200160405190810160405280929190818152602001828054610c16906115ac565b8015610c635780601f10610c3857610100808354040283529160200191610c63565b820191906000526020600020905b815481529060010190602001808311610c4657829003601f168201915b50505050508152602001600482018054610c7c906115ac565b80601f0160208091040260200160405190810160405280929190818152602001828054610ca8906115ac565b8015610cf55780601f10610cca57610100808354040283529160200191610cf5565b820191906000526020600020905b815481529060010190602001808311610cd857829003601f168201915b5050505050815250509080600c0160009054906101000a900461ffff1690508a565b600033905090565b828054610d2b906115ac565b90600052602060002090601f016020900481019282610d4d5760008555610d94565b82601f10610d6657805160ff1916838001178555610d94565b82800160010185558215610d94579182015b82811115610d93578251825591602001919060010190610d78565b5b509050610da19190610da5565b5090565b5b80821115610dbe576000816000905550600101610da6565b5090565b6000610dd5610dd08461147d565b61144c565b905082815260208101848484011115610ded57600080fd5b610df884828561156a565b509392505050565b600081359050610e0f816116c5565b92915050565b600082601f830112610e2657600080fd5b8135610e36848260208601610dc2565b91505092915050565b60006101408284031215610e5257600080fd5b610e5d61014061144c565b90506000610e6d848285016110eb565b600083015250602082013567ffffffffffffffff811115610e8d57600080fd5b610e9984828501610e15565b6020830152506040610ead848285016110eb565b6040830152506060610ec1848285016110eb565b606083015250608082013567ffffffffffffffff811115610ee157600080fd5b610eed84828501610e15565b60808301525060a082013567ffffffffffffffff811115610f0d57600080fd5b610f1984828501610e15565b60a08301525060c082013567ffffffffffffffff811115610f3957600080fd5b610f4584828501610e15565b60c08301525060e082013567ffffffffffffffff811115610f6557600080fd5b610f7184828501610e15565b60e08301525061010082013567ffffffffffffffff811115610f9257600080fd5b610f9e84828501610fc1565b61010083015250610120610fb4848285016110c1565b6101208301525092915050565b600060a08284031215610fd357600080fd5b610fdd60a061144c565b9050600082013567ffffffffffffffff811115610ff957600080fd5b61100584828501610e15565b600083015250602082013567ffffffffffffffff81111561102557600080fd5b61103184828501610e15565b602083015250604082013567ffffffffffffffff81111561105157600080fd5b61105d84828501610e15565b604083015250606082013567ffffffffffffffff81111561107d57600080fd5b61108984828501610e15565b606083015250608082013567ffffffffffffffff8111156110a957600080fd5b6110b584828501610e15565b60808301525092915050565b6000813590506110d0816116dc565b92915050565b6000813590506110e5816116f3565b92915050565b6000813590506110fa8161170a565b92915050565b60006020828403121561111257600080fd5b600061112084828501610e00565b91505092915050565b60006020828403121561113b57600080fd5b600082013567ffffffffffffffff81111561115557600080fd5b61116184828501610e3f565b91505092915050565b60006020828403121561117c57600080fd5b600061118a848285016110d6565b91505092915050565b600061119f838361132b565b60208301905092915050565b6111b481611513565b82525050565b60006111c5826114bd565b6111cf81856114e0565b93506111da836114ad565b8060005b8381101561120b5781516111f28882611193565b97506111fd836114d3565b9250506001810190506111de565b5085935050505092915050565b6000611223826114c8565b61122d81856114f1565b935061123d818560208601611579565b611246816116b4565b840191505092915050565b600061125c826114c8565b6112668185611502565b9350611276818560208601611579565b61127f816116b4565b840191505092915050565b600060a08301600083015184820360008601526112a78282611218565b915050602083015184820360208601526112c18282611218565b915050604083015184820360408601526112db8282611218565b915050606083015184820360608601526112f58282611218565b9150506080830151848203608086015261130f8282611218565b9150508091505092915050565b61132581611525565b82525050565b61133481611553565b82525050565b6113438161155d565b82525050565b600060208201905061135e60008301846111ab565b92915050565b6000602082019050818103600083015261137e81846111ba565b905092915050565b60006101408201905061139c600083018d61133a565b81810360208301526113ae818c611251565b90506113bd604083018b61133a565b6113ca606083018a61133a565b81810360808301526113dc8189611251565b905081810360a08301526113f08188611251565b905081810360c08301526114048187611251565b905081810360e08301526114188186611251565b905081810361010083015261142d818561128a565b905061143d61012083018461131c565b9b9a5050505050505050505050565b6000604051905081810181811067ffffffffffffffff8211171561147357611472611685565b5b8060405250919050565b600067ffffffffffffffff82111561149857611497611685565b5b601f19601f8301169050602081019050919050565b6000819050602082019050919050565b600081519050919050565b600081519050919050565b6000602082019050919050565b600082825260208201905092915050565b600082825260208201905092915050565b600082825260208201905092915050565b600061151e82611533565b9050919050565b600061ffff82169050919050565b600073ffffffffffffffffffffffffffffffffffffffff82169050919050565b6000819050919050565b600060ff82169050919050565b82818337600083830152505050565b60005b8381101561159757808201518184015260208101905061157c565b838111156115a6576000848401525b50505050565b600060028204905060018216806115c457607f821691505b602082108114156115d8576115d7611656565b5b50919050565b60006115e982611553565b91507fffffffffffffffffffffffffffffffffffffffffffffffffffffffffffffffff82141561161c5761161b611627565b5b600182019050919050565b7f4e487b7100000000000000000000000000000000000000000000000000000000600052601160045260246000fd5b7f4e487b7100000000000000000000000000000000000000000000000000000000600052602260045260246000fd5b7f4e487b7100000000000000000000000000000000000000000000000000000000600052604160045260246000fd5b6000601f19601f8301169050919050565b6116ce81611513565b81146116d957600080fd5b50565b6116e581611525565b81146116f057600080fd5b50565b6116fc81611553565b811461170757600080fd5b50565b6117138161155d565b811461171e57600080fd5b5056fea264697066735822122033a78e27c345f8fe6757cd9041a4f3550209d4754db0bf7db04f2d63a578d0c664736f6c63430008000033",
  "immutableReferences": {},
  "source": "pragma solidity 0.8.0;\r\npragma experimental ABIEncoderV2;\r\n\r\nimport \"./EstateFactory.sol\";\r\n\r\ncontract EstateHelper is EstateFactory {\r\n\r\n    function buyEstateById(uint estateId) external payable {\r\n        require(msg.value == estates[estateId].price);\r\n        //Effectuer la transaction d'achat\r\n    }\r\n\r\n    /*function getEstatesByOwner(address _owner) external view returns(uint[] memory){\r\n    uint[] memory result = new uint[](ownerEstateCount[_owner]);\r\n    uint counter = 0;\r\n        //estates[] est vide\r\n    for (uint i=0; i<estates.length; i++) {\r\n        if (estateToOwner[i] == _owner) {\r\n            result[counter] = i;\r\n            counter++;\r\n        }\r\n    }\r\n    return result;\r\n    }*/\r\n\r\n}\r\n",
  "sourcePath": "C:/Users/allou/Desktop/esgiWork/blockchain/projet/back/blockchainBack/contracts/EstateHelper.sol",
  "compiler": {
    "name": "solc",
    "version": "0.8.0+commit.c7dfd78e.Emscripten.clang"
  },
  "schemaVersion": "3.3.3",
  "updatedAt": "2021-01-23T13:25:27.189Z",
  "networkType": "ethereum",
  "devdoc": {
    "kind": "dev",
    "methods": {},
    "version": 1
  },
  "userdoc": {
    "kind": "user",
    "methods": {},
    "version": 1
  }
}