{
  "contractName": "EstateFactory",
  "abi": [
    {
      "anonymous": false,
      "inputs": [
        {
          "indexed": false,
          "internalType": "uint256",
          "name": "idEstate",
          "type": "uint256"
        },
        {
          "indexed": false,
          "internalType": "uint8",
          "name": "surface",
          "type": "uint8"
        },
        {
          "indexed": false,
          "internalType": "string",
          "name": "category",
          "type": "string"
        },
        {
          "indexed": false,
          "internalType": "uint8",
          "name": "nbRoom",
          "type": "uint8"
        },
        {
          "indexed": false,
          "internalType": "uint8",
          "name": "nbBedRoom",
          "type": "uint8"
        },
        {
          "indexed": false,
          "internalType": "string",
          "name": "about",
          "type": "string"
        },
        {
          "indexed": false,
          "internalType": "uint16",
          "name": "price",
          "type": "uint16"
        },
        {
          "indexed": false,
          "internalType": "string",
          "name": "title",
          "type": "string"
        },
        {
          "indexed": false,
          "internalType": "string",
          "name": "rue",
          "type": "string"
        },
        {
          "indexed": false,
          "internalType": "string",
          "name": "nom",
          "type": "string"
        },
        {
          "indexed": false,
          "internalType": "string",
          "name": "codePostale",
          "type": "string"
        },
        {
          "indexed": false,
          "internalType": "string",
          "name": "ville",
          "type": "string"
        },
        {
          "indexed": false,
          "internalType": "string",
          "name": "pays",
          "type": "string"
        }
      ],
      "name": "NewEstate",
      "type": "event"
    },
    {
      "inputs": [
        {
          "internalType": "uint256",
          "name": "",
          "type": "uint256"
        }
      ],
      "name": "estateToOwner",
      "outputs": [
        {
          "internalType": "address",
          "name": "",
          "type": "address"
        }
      ],
      "stateMutability": "view",
      "type": "function"
    },
    {
      "inputs": [
        {
          "internalType": "uint256",
          "name": "",
          "type": "uint256"
        }
      ],
      "name": "estates",
      "outputs": [
        {
          "internalType": "uint8",
          "name": "surface",
          "type": "uint8"
        },
        {
          "internalType": "string",
          "name": "category",
          "type": "string"
        },
        {
          "internalType": "uint8",
          "name": "nbRoom",
          "type": "uint8"
        },
        {
          "internalType": "uint8",
          "name": "nbBedRoom",
          "type": "uint8"
        },
        {
          "internalType": "string",
          "name": "about",
          "type": "string"
        },
        {
          "internalType": "string",
          "name": "title",
          "type": "string"
        },
        {
          "components": [
            {
              "internalType": "string",
              "name": "rue",
              "type": "string"
            },
            {
              "internalType": "string",
              "name": "nom",
              "type": "string"
            },
            {
              "internalType": "string",
              "name": "codePostale",
              "type": "string"
            },
            {
              "internalType": "string",
              "name": "ville",
              "type": "string"
            },
            {
              "internalType": "string",
              "name": "pays",
              "type": "string"
            }
          ],
          "internalType": "struct EstateFactory.Street",
          "name": "street",
          "type": "tuple"
        },
        {
          "internalType": "uint16",
          "name": "price",
          "type": "uint16"
        }
      ],
      "stateMutability": "view",
      "type": "function"
    }
  ],
  "bytecode": "0x6080604052336000806101000a81548173ffffffffffffffffffffffffffffffffffffffff021916908373ffffffffffffffffffffffffffffffffffffffff16021790555034801561005057600080fd5b50610978806100606000396000f3fe608060405234801561001057600080fd5b50600436106100365760003560e01c806363d40a591461003b578063d70f83c21461006b575b600080fd5b610055600480360381019061005091906105f3565b6100a2565b604051610062919061074d565b60405180910390f35b610085600480360381019061008091906105f3565b6100d5565b604051610099989796959493929190610768565b60405180910390f35b60026020528060005260406000206000915054906101000a900473ffffffffffffffffffffffffffffffffffffffff1681565b600181815481106100e557600080fd5b90600052602060002090600c02016000915090508060000160009054906101000a900460ff169080600101805461011b906108b9565b80601f0160208091040260200160405190810160405280929190818152602001828054610147906108b9565b80156101945780601f1061016957610100808354040283529160200191610194565b820191906000526020600020905b81548152906001019060200180831161017757829003601f168201915b5050505050908060020160009054906101000a900460ff16908060020160019054906101000a900460ff16908060040180546101cf906108b9565b80601f01602080910402602001604051908101604052809291908181526020018280546101fb906108b9565b80156102485780601f1061021d57610100808354040283529160200191610248565b820191906000526020600020905b81548152906001019060200180831161022b57829003601f168201915b50505050509080600501805461025d906108b9565b80601f0160208091040260200160405190810160405280929190818152602001828054610289906108b9565b80156102d65780601f106102ab576101008083540402835291602001916102d6565b820191906000526020600020905b8154815290600101906020018083116102b957829003601f168201915b505050505090806006016040518060a00160405290816000820180546102fb906108b9565b80601f0160208091040260200160405190810160405280929190818152602001828054610327906108b9565b80156103745780601f1061034957610100808354040283529160200191610374565b820191906000526020600020905b81548152906001019060200180831161035757829003601f168201915b5050505050815260200160018201805461038d906108b9565b80601f01602080910402602001604051908101604052809291908181526020018280546103b9906108b9565b80156104065780601f106103db57610100808354040283529160200191610406565b820191906000526020600020905b8154815290600101906020018083116103e957829003601f168201915b5050505050815260200160028201805461041f906108b9565b80601f016020809104026020016040519081016040528092919081815260200182805461044b906108b9565b80156104985780601f1061046d57610100808354040283529160200191610498565b820191906000526020600020905b81548152906001019060200180831161047b57829003601f168201915b505050505081526020016003820180546104b1906108b9565b80601f01602080910402602001604051908101604052809291908181526020018280546104dd906108b9565b801561052a5780601f106104ff5761010080835404028352916020019161052a565b820191906000526020600020905b81548152906001019060200180831161050d57829003601f168201915b50505050508152602001600482018054610543906108b9565b80601f016020809104026020016040519081016040528092919081815260200182805461056f906108b9565b80156105bc5780601f10610591576101008083540402835291602001916105bc565b820191906000526020600020905b81548152906001019060200180831161059f57829003601f168201915b5050505050815250509080600b0160009054906101000a900461ffff16905088565b6000813590506105ed8161092b565b92915050565b60006020828403121561060557600080fd5b6000610613848285016105de565b91505092915050565b6106258161082f565b82525050565b600061063682610802565b610640818561080d565b9350610650818560208601610886565b6106598161091a565b840191505092915050565b600061066f82610802565b610679818561081e565b9350610689818560208601610886565b6106928161091a565b840191505092915050565b600060a08301600083015184820360008601526106ba828261062b565b915050602083015184820360208601526106d4828261062b565b915050604083015184820360408601526106ee828261062b565b91505060608301518482036060860152610708828261062b565b91505060808301518482036080860152610722828261062b565b9150508091505092915050565b61073881610841565b82525050565b61074781610879565b82525050565b6000602082019050610762600083018461061c565b92915050565b60006101008201905061077e600083018b61073e565b8181036020830152610790818a610664565b905061079f604083018961073e565b6107ac606083018861073e565b81810360808301526107be8187610664565b905081810360a08301526107d28186610664565b905081810360c08301526107e6818561069d565b90506107f560e083018461072f565b9998505050505050505050565b600081519050919050565b600082825260208201905092915050565b600082825260208201905092915050565b600061083a8261084f565b9050919050565b600061ffff82169050919050565b600073ffffffffffffffffffffffffffffffffffffffff82169050919050565b6000819050919050565b600060ff82169050919050565b60005b838110156108a4578082015181840152602081019050610889565b838111156108b3576000848401525b50505050565b600060028204905060018216806108d157607f821691505b602082108114156108e5576108e46108eb565b5b50919050565b7f4e487b7100000000000000000000000000000000000000000000000000000000600052602260045260246000fd5b6000601f19601f8301169050919050565b6109348161086f565b811461093f57600080fd5b5056fea26469706673582212201064e99f2d5cc2bc829209b1eec20392bc29de7b331de4b4472be94644d8119964736f6c63430008000033",
  "immutableReferences": {},
  "source": "pragma solidity 0.8.0;\r\n\r\nimport \"./Ownable.sol\";\r\npragma experimental ABIEncoderV2;\r\n\r\ncontract EstateFactory is Ownable {\r\n\r\n    event NewEstate(\r\n        uint idEstate,\r\n        uint8 surface,\r\n        string category,\r\n        uint8 nbRoom,\r\n        uint8 nbBedRoom,\r\n        string about,\r\n        uint16 price,\r\n        string title,\r\n        string rue, \r\n        string nom, \r\n        string codePostale, \r\n        string ville, \r\n        string pays);\r\n\r\n    struct Other{\r\n        string item;\r\n        string description;\r\n    }\r\n\r\n    struct Street{\r\n        string rue;\r\n        string nom;\r\n        string codePostale;\r\n        string ville;\r\n        string pays;\r\n    }\r\n\r\n    struct Estate{\r\n        uint8  surface;\r\n        string category;\r\n        uint8 nbRoom;\r\n        uint8 nbBedRoom;\r\n        Other[] others;\r\n        string about;\r\n        string title;\r\n        Street street;\r\n        uint16 price;\r\n\r\n    }\r\n\r\n    Estate[] public estates;\r\n\r\n    mapping (uint => address) public estateToOwner;\r\n    mapping (address => uint) ownerEstateCount;\r\n\r\n    function createOther(string memory _item, string memory _description) private returns(Other memory){\r\n        return Other(_item,_description);\r\n    }\r\n\r\n    function createEstate(\r\n        uint8 _surface,\r\n        string memory _category,\r\n        uint8 _nbRoom, \r\n        uint8 _nbBedRoom,\r\n        string memory _about,\r\n        string memory _title,\r\n        Other[] memory others,\r\n        uint16 _price,\r\n        string memory _rue, \r\n        string memory _nom, \r\n        string memory _codePostale, \r\n        string memory _ville, \r\n        string memory _pays) internal {\r\n\r\n\r\n        Estate memory newEstate;\r\n\r\n        newEstate.surface = _surface;\r\n        newEstate.category = _category;\r\n        newEstate.nbRoom = _nbRoom;\r\n        newEstate.nbBedRoom = _nbBedRoom;\r\n        newEstate.about = _about;\r\n        newEstate.title = _title;\r\n        newEstate.street = Street(_rue, _nom, _codePostale, _ville, _pays);\r\n        newEstate.price = _price;\r\n\r\n        //newEstate.others =;\r\n        estates.push(newEstate);\r\n        uint idEstate = estates.length;\r\n        estateToOwner[idEstate] = msg.sender;\r\n        ownerEstateCount[msg.sender]++;\r\n        emit NewEstate(idEstate, _surface, _category, _nbRoom, _nbBedRoom, _about, _price, _title, _rue, _nom, _codePostale, _ville, _pays);\r\n\r\n    }\r\n\r\n\r\n    /*function createOther(string item, string description){\r\n\r\n    }*/\r\n\r\n\r\n\r\n\r\n\r\n\r\n}\r\n",
  "sourcePath": "C:\\Users\\marcg\\OneDrive\\Bureau\\ESGI\\Blockchain\\blockchainBack\\contracts\\EstateFactory.sol",
  "compiler": {
    "name": "solc",
    "version": "0.8.0+commit.c7dfd78e.Emscripten.clang"
  },
  "schemaVersion": "3.3.3",
  "updatedAt": "2021-01-08T10:17:47.716Z",
  "devdoc": {
    "kind": "dev",
    "methods": {},
    "version": 1
  },
  "userdoc": {
    "kind": "user",
    "methods": {},
    "version": 1
  }
}