{
  "contractName": "EstateFactory",
  "abi": [
    {
      "anonymous": false,
      "inputs": [
        {
          "indexed": false,
          "internalType": "uint256",
          "name": "idEstate",
          "type": "uint256"
        },
        {
          "indexed": false,
          "internalType": "uint8",
          "name": "surface",
          "type": "uint8"
        },
        {
          "indexed": false,
          "internalType": "string",
          "name": "category",
          "type": "string"
        },
        {
          "indexed": false,
          "internalType": "uint8",
          "name": "nbRoom",
          "type": "uint8"
        },
        {
          "indexed": false,
          "internalType": "uint8",
          "name": "nbBedRoom",
          "type": "uint8"
        },
        {
          "indexed": false,
          "internalType": "string",
          "name": "about",
          "type": "string"
        },
        {
          "indexed": false,
          "internalType": "uint16",
          "name": "price",
          "type": "uint16"
        },
        {
          "indexed": false,
          "internalType": "string",
          "name": "title",
          "type": "string"
        },
        {
          "indexed": false,
          "internalType": "string",
          "name": "rue",
          "type": "string"
        },
        {
          "indexed": false,
          "internalType": "string",
          "name": "nom",
          "type": "string"
        },
        {
          "indexed": false,
          "internalType": "string",
          "name": "codePostale",
          "type": "string"
        },
        {
          "indexed": false,
          "internalType": "string",
          "name": "ville",
          "type": "string"
        },
        {
          "indexed": false,
          "internalType": "string",
          "name": "pays",
          "type": "string"
        }
      ],
      "name": "NewEstate",
      "type": "event"
    },
    {
      "inputs": [
        {
          "internalType": "uint256",
          "name": "",
          "type": "uint256"
        }
      ],
      "name": "estateToOwner",
      "outputs": [
        {
          "internalType": "address",
          "name": "",
          "type": "address"
        }
      ],
      "stateMutability": "view",
      "type": "function"
    },
    {
      "inputs": [
        {
          "internalType": "uint256",
          "name": "",
          "type": "uint256"
        }
      ],
      "name": "estates",
      "outputs": [
        {
          "internalType": "uint8",
          "name": "surface",
          "type": "uint8"
        },
        {
          "internalType": "string",
          "name": "category",
          "type": "string"
        },
        {
          "internalType": "uint8",
          "name": "nbRoom",
          "type": "uint8"
        },
        {
          "internalType": "uint8",
          "name": "nbBedRoom",
          "type": "uint8"
        },
        {
          "internalType": "string",
          "name": "description",
          "type": "string"
        },
        {
          "internalType": "string",
          "name": "item",
          "type": "string"
        },
        {
          "internalType": "string",
          "name": "about",
          "type": "string"
        },
        {
          "internalType": "string",
          "name": "title",
          "type": "string"
        },
        {
          "components": [
            {
              "internalType": "string",
              "name": "rue",
              "type": "string"
            },
            {
              "internalType": "string",
              "name": "nom",
              "type": "string"
            },
            {
              "internalType": "string",
              "name": "codePostale",
              "type": "string"
            },
            {
              "internalType": "string",
              "name": "ville",
              "type": "string"
            },
            {
              "internalType": "string",
              "name": "pays",
              "type": "string"
            }
          ],
          "internalType": "struct EstateFactory.Street",
          "name": "street",
          "type": "tuple"
        },
        {
          "internalType": "uint16",
          "name": "price",
          "type": "uint16"
        },
        {
          "internalType": "bool",
          "name": "enVente",
          "type": "bool"
        }
      ],
      "stateMutability": "view",
      "type": "function"
    },
    {
      "inputs": [],
      "name": "test",
      "outputs": [
        {
          "internalType": "address",
          "name": "",
          "type": "address"
        }
      ],
      "stateMutability": "view",
      "type": "function"
    },
    {
      "inputs": [
        {
          "internalType": "string",
          "name": "myvar",
          "type": "string"
        }
      ],
      "name": "getMsgValue",
      "outputs": [
        {
          "internalType": "uint256",
          "name": "",
          "type": "uint256"
        }
      ],
      "stateMutability": "payable",
      "type": "function"
    },
    {
      "inputs": [
        {
          "components": [
            {
              "internalType": "uint8",
              "name": "surface",
              "type": "uint8"
            },
            {
              "internalType": "string",
              "name": "category",
              "type": "string"
            },
            {
              "internalType": "uint8",
              "name": "nbRoom",
              "type": "uint8"
            },
            {
              "internalType": "uint8",
              "name": "nbBedRoom",
              "type": "uint8"
            },
            {
              "internalType": "string",
              "name": "description",
              "type": "string"
            },
            {
              "internalType": "string",
              "name": "item",
              "type": "string"
            },
            {
              "internalType": "string",
              "name": "about",
              "type": "string"
            },
            {
              "internalType": "string",
              "name": "title",
              "type": "string"
            },
            {
              "components": [
                {
                  "internalType": "string",
                  "name": "rue",
                  "type": "string"
                },
                {
                  "internalType": "string",
                  "name": "nom",
                  "type": "string"
                },
                {
                  "internalType": "string",
                  "name": "codePostale",
                  "type": "string"
                },
                {
                  "internalType": "string",
                  "name": "ville",
                  "type": "string"
                },
                {
                  "internalType": "string",
                  "name": "pays",
                  "type": "string"
                }
              ],
              "internalType": "struct EstateFactory.Street",
              "name": "street",
              "type": "tuple"
            },
            {
              "internalType": "uint16",
              "name": "price",
              "type": "uint16"
            },
            {
              "internalType": "bool",
              "name": "enVente",
              "type": "bool"
            }
          ],
          "internalType": "struct EstateFactory.Estate",
          "name": "estate",
          "type": "tuple"
        }
      ],
      "name": "createEstate",
      "outputs": [],
      "stateMutability": "nonpayable",
      "type": "function"
    },
    {
      "inputs": [
        {
          "internalType": "address",
          "name": "_owner",
          "type": "address"
        }
      ],
      "name": "getEstatesByOwner",
      "outputs": [
        {
          "internalType": "uint256[]",
          "name": "",
          "type": "uint256[]"
        }
      ],
      "stateMutability": "view",
      "type": "function"
    },
    {
      "inputs": [
        {
          "internalType": "uint256",
          "name": "estateId",
          "type": "uint256"
        }
      ],
      "name": "buyEstateById",
      "outputs": [],
      "stateMutability": "payable",
      "type": "function"
    },
    {
      "inputs": [],
      "name": "getNumberEstates",
      "outputs": [
        {
          "internalType": "uint256",
          "name": "",
          "type": "uint256"
        }
      ],
      "stateMutability": "view",
      "type": "function"
    }
  ],
  "bytecode": "0x6080604052336000806101000a81548173ffffffffffffffffffffffffffffffffffffffff021916908373ffffffffffffffffffffffffffffffffffffffff16021790555034801561005057600080fd5b50611b3d806100606000396000f3fe60806040526004361061007b5760003560e01c8063a541027f1161004e578063a541027f14610132578063d70f83c21461016f578063e8d72d33146101b6578063f8a8fd6d146101e15761007b565b8063482bf1531461008057806363d40a591461009c578063643a418f146100d95780637872dbc414610109575b600080fd5b61009a6004803603810190610095919061145b565b61020c565b005b3480156100a857600080fd5b506100c360048036038101906100be919061145b565b610430565b6040516100d09190611698565b60405180910390f35b6100f360048036038101906100ee91906113d9565b610463565b60405161010091906116f5565b60405180910390f35b34801561011557600080fd5b50610130600480360381019061012b919061141a565b61046d565b005b34801561013e57600080fd5b50610159600480360381019061015491906113b0565b6107b8565b60405161016691906116b3565b60405180910390f35b34801561017b57600080fd5b506101966004803603810190610191919061145b565b610957565b6040516101ad9b9a99989796959493929190611710565b60405180910390f35b3480156101c257600080fd5b506101cb610f8f565b6040516101d891906116f5565b60405180910390f35b3480156101ed57600080fd5b506101f6610f9c565b6040516102039190611698565b60405180910390f35b60018181548110610246577f4e487b7100000000000000000000000000000000000000000000000000000000600052603260045260246000fd5b90600052602060002090600d0201600c0160009054906101000a900461ffff1661ffff1634146102ab576040517f08c379a00000000000000000000000000000000000000000000000000000000081526004016102a2906116d5565b60405180910390fd5b60006002600083815260200190815260200160002060009054906101000a900473ffffffffffffffffffffffffffffffffffffffff16905060008190508073ffffffffffffffffffffffffffffffffffffffff166108fc349081150290604051600060405180830381858888f1935050505015801561032e573d6000803e3d6000fd5b50600360008373ffffffffffffffffffffffffffffffffffffffff1673ffffffffffffffffffffffffffffffffffffffff168152602001908152602001600020600081548092919061037f90611951565b9190505550600360003373ffffffffffffffffffffffffffffffffffffffff1673ffffffffffffffffffffffffffffffffffffffff16815260200190815260200160002060008154809291906103d4906119ad565b9190505550336002600085815260200190815260200160002060006101000a81548173ffffffffffffffffffffffffffffffffffffffff021916908373ffffffffffffffffffffffffffffffffffffffff160217905550505050565b60026020528060005260406000206000915054906101000a900473ffffffffffffffffffffffffffffffffffffffff1681565b6000349050919050565b8060000151816000019060ff16908160ff1681525050806020015181602001819052508060400151816040019060ff16908160ff16815250508060600151816060019060ff16908160ff16815250508060c001518160c001819052508060e001518160e0018190525080610100015181610100018190525080610120015181610120019061ffff16908161ffff168152505060018190806001815401808255809150506001900390600052602060002090600d020160009091909190915060008201518160000160006101000a81548160ff021916908360ff1602179055506020820151816001019080519060200190610568929190610fa4565b5060408201518160020160006101000a81548160ff021916908360ff16021790555060608201518160020160016101000a81548160ff021916908360ff16021790555060808201518160030190805190602001906105c7929190610fa4565b5060a08201518160040190805190602001906105e4929190610fa4565b5060c0820151816005019080519060200190610601929190610fa4565b5060e082015181600601908051906020019061061e929190610fa4565b50610100820151816007016000820151816000019080519060200190610645929190610fa4565b506020820151816001019080519060200190610662929190610fa4565b50604082015181600201908051906020019061067f929190610fa4565b50606082015181600301908051906020019061069c929190610fa4565b5060808201518160040190805190602001906106b9929190610fa4565b50505061012082015181600c0160006101000a81548161ffff021916908361ffff16021790555061014082015181600c0160026101000a81548160ff021916908315150217905550505060006001805490509050336002600083815260200190815260200160002060006101000a81548173ffffffffffffffffffffffffffffffffffffffff021916908373ffffffffffffffffffffffffffffffffffffffff160217905550600360003373ffffffffffffffffffffffffffffffffffffffff1673ffffffffffffffffffffffffffffffffffffffff16815260200190815260200160002060008154809291906107af906119ad565b91905055505050565b60606000600360008473ffffffffffffffffffffffffffffffffffffffff1673ffffffffffffffffffffffffffffffffffffffff1681526020019081526020016000205467ffffffffffffffff81111561083b577f4e487b7100000000000000000000000000000000000000000000000000000000600052604160045260246000fd5b6040519080825280602002602001820160405280156108695781602001602082028036833780820191505090505b5090506000805b60018054905081101561094c578473ffffffffffffffffffffffffffffffffffffffff166002600083815260200190815260200160002060009054906101000a900473ffffffffffffffffffffffffffffffffffffffff1673ffffffffffffffffffffffffffffffffffffffff161415610939578083838151811061091e577f4e487b7100000000000000000000000000000000000000000000000000000000600052603260045260246000fd5b6020026020010181815250508180610935906119ad565b9250505b8080610944906119ad565b915050610870565b508192505050919050565b6001818154811061096757600080fd5b90600052602060002090600d02016000915090508060000160009054906101000a900460ff169080600101805461099d9061197b565b80601f01602080910402602001604051908101604052809291908181526020018280546109c99061197b565b8015610a165780601f106109eb57610100808354040283529160200191610a16565b820191906000526020600020905b8154815290600101906020018083116109f957829003601f168201915b5050505050908060020160009054906101000a900460ff16908060020160019054906101000a900460ff1690806003018054610a519061197b565b80601f0160208091040260200160405190810160405280929190818152602001828054610a7d9061197b565b8015610aca5780601f10610a9f57610100808354040283529160200191610aca565b820191906000526020600020905b815481529060010190602001808311610aad57829003601f168201915b505050505090806004018054610adf9061197b565b80601f0160208091040260200160405190810160405280929190818152602001828054610b0b9061197b565b8015610b585780601f10610b2d57610100808354040283529160200191610b58565b820191906000526020600020905b815481529060010190602001808311610b3b57829003601f168201915b505050505090806005018054610b6d9061197b565b80601f0160208091040260200160405190810160405280929190818152602001828054610b999061197b565b8015610be65780601f10610bbb57610100808354040283529160200191610be6565b820191906000526020600020905b815481529060010190602001808311610bc957829003601f168201915b505050505090806006018054610bfb9061197b565b80601f0160208091040260200160405190810160405280929190818152602001828054610c279061197b565b8015610c745780601f10610c4957610100808354040283529160200191610c74565b820191906000526020600020905b815481529060010190602001808311610c5757829003601f168201915b505050505090806007016040518060a0016040529081600082018054610c999061197b565b80601f0160208091040260200160405190810160405280929190818152602001828054610cc59061197b565b8015610d125780601f10610ce757610100808354040283529160200191610d12565b820191906000526020600020905b815481529060010190602001808311610cf557829003601f168201915b50505050508152602001600182018054610d2b9061197b565b80601f0160208091040260200160405190810160405280929190818152602001828054610d579061197b565b8015610da45780601f10610d7957610100808354040283529160200191610da4565b820191906000526020600020905b815481529060010190602001808311610d8757829003601f168201915b50505050508152602001600282018054610dbd9061197b565b80601f0160208091040260200160405190810160405280929190818152602001828054610de99061197b565b8015610e365780601f10610e0b57610100808354040283529160200191610e36565b820191906000526020600020905b815481529060010190602001808311610e1957829003601f168201915b50505050508152602001600382018054610e4f9061197b565b80601f0160208091040260200160405190810160405280929190818152602001828054610e7b9061197b565b8015610ec85780601f10610e9d57610100808354040283529160200191610ec8565b820191906000526020600020905b815481529060010190602001808311610eab57829003601f168201915b50505050508152602001600482018054610ee19061197b565b80601f0160208091040260200160405190810160405280929190818152602001828054610f0d9061197b565b8015610f5a5780601f10610f2f57610100808354040283529160200191610f5a565b820191906000526020600020905b815481529060010190602001808311610f3d57829003601f168201915b5050505050815250509080600c0160009054906101000a900461ffff169080600c0160029054906101000a900460ff1690508b565b6000600180549050905090565b600033905090565b828054610fb09061197b565b90600052602060002090601f016020900481019282610fd25760008555611019565b82601f10610feb57805160ff1916838001178555611019565b82800160010185558215611019579182015b82811115611018578251825591602001919060010190610ffd565b5b509050611026919061102a565b5090565b5b8082111561104357600081600090555060010161102b565b5090565b600061105a61105584611816565b6117e5565b90508281526020810184848401111561107257600080fd5b61107d84828561190f565b509392505050565b60008135905061109481611a94565b92915050565b6000813590506110a981611aab565b92915050565b600082601f8301126110c057600080fd5b81356110d0848260208601611047565b91505092915050565b600061016082840312156110ec57600080fd5b6110f76101606117e5565b905060006111078482850161139b565b600083015250602082013567ffffffffffffffff81111561112757600080fd5b611133848285016110af565b60208301525060406111478482850161139b565b604083015250606061115b8482850161139b565b606083015250608082013567ffffffffffffffff81111561117b57600080fd5b611187848285016110af565b60808301525060a082013567ffffffffffffffff8111156111a757600080fd5b6111b3848285016110af565b60a08301525060c082013567ffffffffffffffff8111156111d357600080fd5b6111df848285016110af565b60c08301525060e082013567ffffffffffffffff8111156111ff57600080fd5b61120b848285016110af565b60e08301525061010082013567ffffffffffffffff81111561122c57600080fd5b61123884828501611271565b6101008301525061012061124e84828501611371565b610120830152506101406112648482850161109a565b6101408301525092915050565b600060a0828403121561128357600080fd5b61128d60a06117e5565b9050600082013567ffffffffffffffff8111156112a957600080fd5b6112b5848285016110af565b600083015250602082013567ffffffffffffffff8111156112d557600080fd5b6112e1848285016110af565b602083015250604082013567ffffffffffffffff81111561130157600080fd5b61130d848285016110af565b604083015250606082013567ffffffffffffffff81111561132d57600080fd5b611339848285016110af565b606083015250608082013567ffffffffffffffff81111561135957600080fd5b611365848285016110af565b60808301525092915050565b60008135905061138081611ac2565b92915050565b60008135905061139581611ad9565b92915050565b6000813590506113aa81611af0565b92915050565b6000602082840312156113c257600080fd5b60006113d084828501611085565b91505092915050565b6000602082840312156113eb57600080fd5b600082013567ffffffffffffffff81111561140557600080fd5b611411848285016110af565b91505092915050565b60006020828403121561142c57600080fd5b600082013567ffffffffffffffff81111561144657600080fd5b611452848285016110d9565b91505092915050565b60006020828403121561146d57600080fd5b600061147b84828501611386565b91505092915050565b6000611490838361166b565b60208301905092915050565b6114a5816118ac565b82525050565b60006114b682611856565b6114c08185611879565b93506114cb83611846565b8060005b838110156114fc5781516114e38882611484565b97506114ee8361186c565b9250506001810190506114cf565b5085935050505092915050565b611512816118be565b82525050565b600061152382611861565b61152d818561188a565b935061153d81856020860161191e565b61154681611a83565b840191505092915050565b600061155c82611861565b611566818561189b565b935061157681856020860161191e565b61157f81611a83565b840191505092915050565b600061159760118361189b565b91507f536f6d6d6520696e7375666973616e74650000000000000000000000000000006000830152602082019050919050565b600060a08301600083015184820360008601526115e78282611518565b915050602083015184820360208601526116018282611518565b9150506040830151848203604086015261161b8282611518565b915050606083015184820360608601526116358282611518565b9150506080830151848203608086015261164f8282611518565b9150508091505092915050565b611665816118ca565b82525050565b611674816118f8565b82525050565b611683816118f8565b82525050565b61169281611902565b82525050565b60006020820190506116ad600083018461149c565b92915050565b600060208201905081810360008301526116cd81846114ab565b905092915050565b600060208201905081810360008301526116ee8161158a565b9050919050565b600060208201905061170a600083018461167a565b92915050565b600061016082019050611726600083018e611689565b8181036020830152611738818d611551565b9050611747604083018c611689565b611754606083018b611689565b8181036080830152611766818a611551565b905081810360a083015261177a8189611551565b905081810360c083015261178e8188611551565b905081810360e08301526117a28187611551565b90508181036101008301526117b781866115ca565b90506117c761012083018561165c565b6117d5610140830184611509565b9c9b505050505050505050505050565b6000604051905081810181811067ffffffffffffffff8211171561180c5761180b611a54565b5b8060405250919050565b600067ffffffffffffffff82111561183157611830611a54565b5b601f19601f8301169050602081019050919050565b6000819050602082019050919050565b600081519050919050565b600081519050919050565b6000602082019050919050565b600082825260208201905092915050565b600082825260208201905092915050565b600082825260208201905092915050565b60006118b7826118d8565b9050919050565b60008115159050919050565b600061ffff82169050919050565b600073ffffffffffffffffffffffffffffffffffffffff82169050919050565b6000819050919050565b600060ff82169050919050565b82818337600083830152505050565b60005b8381101561193c578082015181840152602081019050611921565b8381111561194b576000848401525b50505050565b600061195c826118f8565b915060008214156119705761196f6119f6565b5b600182039050919050565b6000600282049050600182168061199357607f821691505b602082108114156119a7576119a6611a25565b5b50919050565b60006119b8826118f8565b91507fffffffffffffffffffffffffffffffffffffffffffffffffffffffffffffffff8214156119eb576119ea6119f6565b5b600182019050919050565b7f4e487b7100000000000000000000000000000000000000000000000000000000600052601160045260246000fd5b7f4e487b7100000000000000000000000000000000000000000000000000000000600052602260045260246000fd5b7f4e487b7100000000000000000000000000000000000000000000000000000000600052604160045260246000fd5b6000601f19601f8301169050919050565b611a9d816118ac565b8114611aa857600080fd5b50565b611ab4816118be565b8114611abf57600080fd5b50565b611acb816118ca565b8114611ad657600080fd5b50565b611ae2816118f8565b8114611aed57600080fd5b50565b611af981611902565b8114611b0457600080fd5b5056fea2646970667358221220d7b29181e5e6f3279cec12f35fa9de7a03e3b5efc2ea12aef354c2be3b3a7d1d64736f6c63430008000033",
  "immutableReferences": {},
  "source": "pragma solidity 0.8.0;\r\n\r\nimport \"./Ownable.sol\";\r\npragma experimental ABIEncoderV2;\r\n\r\ncontract EstateFactory is Ownable {\r\n\r\n    event NewEstate(\r\n        uint idEstate,\r\n        uint8 surface,\r\n        string category,\r\n        uint8 nbRoom,\r\n        uint8 nbBedRoom,\r\n        string about,\r\n        uint16 price,\r\n        string title,\r\n        string rue, \r\n        string nom, \r\n        string codePostale, \r\n        string ville, \r\n        string pays);\r\n\r\n\r\n    struct Street{\r\n        string rue;\r\n        string nom;\r\n        string codePostale;\r\n        string ville;\r\n        string pays;\r\n    }\r\n\r\n    struct Estate{\r\n        uint8  surface;\r\n        string category;\r\n        uint8 nbRoom;\r\n        uint8 nbBedRoom;\r\n        string description;\r\n        string item;\r\n        string about;\r\n        string title;\r\n        Street street;\r\n        uint16 price;\r\n\r\n        //Vente ou Achat\r\n\r\n        bool enVente;\r\n        // address payable owner;\r\n\r\n    }\r\n\r\n    function test() external view returns(address)  {\r\n        return msg.sender;\r\n    }\r\n\r\n    function getMsgValue(string memory myvar) external payable returns(uint)  {\r\n        return msg.value;\r\n    }\r\n\r\n    Estate[] public estates;\r\n\r\n    mapping (uint => address) public estateToOwner;\r\n    mapping (address => uint)  ownerEstateCount;\r\n\r\n    /*function createOther(string memory _item, string memory _description) private returns( memory){\r\n        return Other(_item,_description);\r\n    }*/\r\n\r\n    function createEstate(\r\n        Estate memory estate ) external {\r\n\r\n\r\n        //Estate memory newEstate;\r\n\r\n        estate.surface = estate.surface;\r\n        estate.category = estate.category;\r\n        estate.nbRoom = estate.nbRoom;\r\n        estate.nbBedRoom = estate.nbBedRoom;\r\n        estate.about = estate.about;\r\n        estate.title = estate.title;\r\n        estate.street = estate.street;\r\n        estate.price = estate.price;\r\n\r\n        //newEstate.others =;\r\n        estates.push(estate);\r\n        uint idEstate = estates.length;\r\n\r\n        estateToOwner[idEstate] = msg.sender;\r\n        ownerEstateCount[msg.sender]++;\r\n        //emit NewEstate(idEstate, _surface, _category, _nbRoom, _nbBedRoom, _about, _price, _title, _rue, _nom, _codePostale, _ville, _pays);\r\n\r\n    }\r\n\r\n    function getEstatesByOwner(address _owner) external view returns(uint[] memory){\r\n        uint[] memory result = new uint[](ownerEstateCount[_owner]);\r\n        uint counter = 0;\r\n        //estates[] est vide\r\n        for (uint i=0; i<estates.length; i++) {\r\n            if (estateToOwner[i] == _owner) {\r\n                result[counter] = i;\r\n                counter++;\r\n            }\r\n        }\r\n        return result;\r\n    }\r\n\r\n    function buyEstateById(uint estateId) external payable {\r\n\r\n        require(msg.value == estates[estateId].price, \"Somme insufisante\");\r\n\r\n        //Recuperere le vendeur\r\n        address seller = estateToOwner[estateId];\r\n        address payable sellerPayable = payable (seller);\r\n\r\n        //Transfere l'argent\r\n        sellerPayable.transfer(msg.value);\r\n\r\n        //Update\r\n        ownerEstateCount[seller]--;\r\n        ownerEstateCount[msg.sender]++;\r\n\r\n        estateToOwner[estateId] = msg.sender;\r\n        //Effectuer la transaction d'achat\r\n    }\r\n\r\n    function getNumberEstates() external view returns(uint){\r\n\r\n        return estates.length;\r\n    }\r\n\r\n\r\n    /*function createOther(string item, string description){\r\n\r\n    }*/\r\n\r\n\r\n\r\n\r\n\r\n\r\n\r\n}\r\n",
  "sourcePath": "C:\\Users\\allou\\Desktop\\esgiWork\\blockchain\\projet\\back\\blockchainBack\\contracts\\EstateFactory.sol",
  "compiler": {
    "name": "solc",
    "version": "0.8.0+commit.c7dfd78e.Emscripten.clang"
  },
  "schemaVersion": "3.3.3",
  "updatedAt": "2021-01-24T02:36:29.431Z",
  "devdoc": {
    "kind": "dev",
    "methods": {},
    "version": 1
  },
  "userdoc": {
    "kind": "user",
    "methods": {},
    "version": 1
  }
}