{
  "contractName": "EstateHelper",
  "abi": [
    {
      "anonymous": false,
      "inputs": [
        {
          "indexed": false,
          "internalType": "uint256",
          "name": "idEstate",
          "type": "uint256"
        },
        {
          "indexed": false,
          "internalType": "uint8",
          "name": "surface",
          "type": "uint8"
        },
        {
          "indexed": false,
          "internalType": "string",
          "name": "category",
          "type": "string"
        },
        {
          "indexed": false,
          "internalType": "uint8",
          "name": "nbRoom",
          "type": "uint8"
        },
        {
          "indexed": false,
          "internalType": "uint8",
          "name": "nbBedRoom",
          "type": "uint8"
        },
        {
          "indexed": false,
          "internalType": "string",
          "name": "about",
          "type": "string"
        },
        {
          "indexed": false,
          "internalType": "uint16",
          "name": "price",
          "type": "uint16"
        },
        {
          "indexed": false,
          "internalType": "string",
          "name": "title",
          "type": "string"
        },
        {
          "indexed": false,
          "internalType": "string",
          "name": "rue",
          "type": "string"
        },
        {
          "indexed": false,
          "internalType": "string",
          "name": "nom",
          "type": "string"
        },
        {
          "indexed": false,
          "internalType": "string",
          "name": "codePostale",
          "type": "string"
        },
        {
          "indexed": false,
          "internalType": "string",
          "name": "ville",
          "type": "string"
        },
        {
          "indexed": false,
          "internalType": "string",
          "name": "pays",
          "type": "string"
        }
      ],
      "name": "NewEstate",
      "type": "event"
    },
    {
      "inputs": [
        {
          "internalType": "uint256",
          "name": "",
          "type": "uint256"
        }
      ],
      "name": "estateToOwner",
      "outputs": [
        {
          "internalType": "address",
          "name": "",
          "type": "address"
        }
      ],
      "stateMutability": "view",
      "type": "function"
    },
    {
      "inputs": [
        {
          "internalType": "uint256",
          "name": "",
          "type": "uint256"
        }
      ],
      "name": "estates",
      "outputs": [
        {
          "internalType": "uint8",
          "name": "surface",
          "type": "uint8"
        },
        {
          "internalType": "string",
          "name": "category",
          "type": "string"
        },
        {
          "internalType": "uint8",
          "name": "nbRoom",
          "type": "uint8"
        },
        {
          "internalType": "uint8",
          "name": "nbBedRoom",
          "type": "uint8"
        },
        {
          "internalType": "string",
          "name": "about",
          "type": "string"
        },
        {
          "internalType": "string",
          "name": "title",
          "type": "string"
        },
        {
          "components": [
            {
              "internalType": "string",
              "name": "rue",
              "type": "string"
            },
            {
              "internalType": "string",
              "name": "nom",
              "type": "string"
            },
            {
              "internalType": "string",
              "name": "codePostale",
              "type": "string"
            },
            {
              "internalType": "string",
              "name": "ville",
              "type": "string"
            },
            {
              "internalType": "string",
              "name": "pays",
              "type": "string"
            }
          ],
          "internalType": "struct EstateFactory.Street",
          "name": "street",
          "type": "tuple"
        },
        {
          "internalType": "uint16",
          "name": "price",
          "type": "uint16"
        }
      ],
      "stateMutability": "view",
      "type": "function"
    },
    {
      "inputs": [
        {
          "internalType": "uint256",
          "name": "estateId",
          "type": "uint256"
        }
      ],
      "name": "buyEstateById",
      "outputs": [],
      "stateMutability": "payable",
      "type": "function"
    },
    {
      "inputs": [
        {
          "internalType": "address",
          "name": "_owner",
          "type": "address"
        }
      ],
      "name": "getEstatesByOwner",
      "outputs": [
        {
          "internalType": "uint256[]",
          "name": "",
          "type": "uint256[]"
        }
      ],
      "stateMutability": "view",
      "type": "function"
    }
  ],
  "bytecode": "0x6080604052336000806101000a81548173ffffffffffffffffffffffffffffffffffffffff021916908373ffffffffffffffffffffffffffffffffffffffff16021790555034801561005057600080fd5b50610dac806100606000396000f3fe60806040526004361061003f5760003560e01c8063482bf1531461004457806363d40a5914610060578063a541027f1461009d578063d70f83c2146100da575b600080fd5b61005e600480360381019061005991906108b8565b61011e565b005b34801561006c57600080fd5b50610087600480360381019061008291906108b8565b61018a565b6040516100949190610a97565b60405180910390f35b3480156100a957600080fd5b506100c460048036038101906100bf919061088f565b6101bd565b6040516100d19190610ab2565b60405180910390f35b3480156100e657600080fd5b5061010160048036038101906100fc91906108b8565b61035c565b604051610115989796959493929190610ad4565b60405180910390f35b60018181548110610158577f4e487b7100000000000000000000000000000000000000000000000000000000600052603260045260246000fd5b90600052602060002090600c0201600b0160009054906101000a900461ffff1661ffff16341461018757600080fd5b50565b60026020528060005260406000206000915054906101000a900473ffffffffffffffffffffffffffffffffffffffff1681565b60606000600360008473ffffffffffffffffffffffffffffffffffffffff1673ffffffffffffffffffffffffffffffffffffffff1681526020019081526020016000205467ffffffffffffffff811115610240577f4e487b7100000000000000000000000000000000000000000000000000000000600052604160045260246000fd5b60405190808252806020026020018201604052801561026e5781602001602082028036833780820191505090505b5090506000805b600180549050811015610351578473ffffffffffffffffffffffffffffffffffffffff166002600083815260200190815260200160002060009054906101000a900473ffffffffffffffffffffffffffffffffffffffff1673ffffffffffffffffffffffffffffffffffffffff16141561033e5780838381518110610323577f4e487b7100000000000000000000000000000000000000000000000000000000600052603260045260246000fd5b602002602001018181525050818061033a90610c90565b9250505b808061034990610c90565b915050610275565b508192505050919050565b6001818154811061036c57600080fd5b90600052602060002090600c02016000915090508060000160009054906101000a900460ff16908060010180546103a290610c5e565b80601f01602080910402602001604051908101604052809291908181526020018280546103ce90610c5e565b801561041b5780601f106103f05761010080835404028352916020019161041b565b820191906000526020600020905b8154815290600101906020018083116103fe57829003601f168201915b5050505050908060020160009054906101000a900460ff16908060020160019054906101000a900460ff169080600401805461045690610c5e565b80601f016020809104026020016040519081016040528092919081815260200182805461048290610c5e565b80156104cf5780601f106104a4576101008083540402835291602001916104cf565b820191906000526020600020905b8154815290600101906020018083116104b257829003601f168201915b5050505050908060050180546104e490610c5e565b80601f016020809104026020016040519081016040528092919081815260200182805461051090610c5e565b801561055d5780601f106105325761010080835404028352916020019161055d565b820191906000526020600020905b81548152906001019060200180831161054057829003601f168201915b505050505090806006016040518060a001604052908160008201805461058290610c5e565b80601f01602080910402602001604051908101604052809291908181526020018280546105ae90610c5e565b80156105fb5780601f106105d0576101008083540402835291602001916105fb565b820191906000526020600020905b8154815290600101906020018083116105de57829003601f168201915b5050505050815260200160018201805461061490610c5e565b80601f016020809104026020016040519081016040528092919081815260200182805461064090610c5e565b801561068d5780601f106106625761010080835404028352916020019161068d565b820191906000526020600020905b81548152906001019060200180831161067057829003601f168201915b505050505081526020016002820180546106a690610c5e565b80601f01602080910402602001604051908101604052809291908181526020018280546106d290610c5e565b801561071f5780601f106106f45761010080835404028352916020019161071f565b820191906000526020600020905b81548152906001019060200180831161070257829003601f168201915b5050505050815260200160038201805461073890610c5e565b80601f016020809104026020016040519081016040528092919081815260200182805461076490610c5e565b80156107b15780601f10610786576101008083540402835291602001916107b1565b820191906000526020600020905b81548152906001019060200180831161079457829003601f168201915b505050505081526020016004820180546107ca90610c5e565b80601f01602080910402602001604051908101604052809291908181526020018280546107f690610c5e565b80156108435780601f1061081857610100808354040283529160200191610843565b820191906000526020600020905b81548152906001019060200180831161082657829003601f168201915b5050505050815250509080600b0160009054906101000a900461ffff16905088565b60008135905061087481610d48565b92915050565b60008135905061088981610d5f565b92915050565b6000602082840312156108a157600080fd5b60006108af84828501610865565b91505092915050565b6000602082840312156108ca57600080fd5b60006108d88482850161087a565b91505092915050565b60006108ed8383610a79565b60208301905092915050565b61090281610bd4565b82525050565b600061091382610b7e565b61091d8185610ba1565b935061092883610b6e565b8060005b8381101561095957815161094088826108e1565b975061094b83610b94565b92505060018101905061092c565b5085935050505092915050565b600061097182610b89565b61097b8185610bb2565b935061098b818560208601610c2b565b61099481610d37565b840191505092915050565b60006109aa82610b89565b6109b48185610bc3565b93506109c4818560208601610c2b565b6109cd81610d37565b840191505092915050565b600060a08301600083015184820360008601526109f58282610966565b91505060208301518482036020860152610a0f8282610966565b91505060408301518482036040860152610a298282610966565b91505060608301518482036060860152610a438282610966565b91505060808301518482036080860152610a5d8282610966565b9150508091505092915050565b610a7381610be6565b82525050565b610a8281610c14565b82525050565b610a9181610c1e565b82525050565b6000602082019050610aac60008301846108f9565b92915050565b60006020820190508181036000830152610acc8184610908565b905092915050565b600061010082019050610aea600083018b610a88565b8181036020830152610afc818a61099f565b9050610b0b6040830189610a88565b610b186060830188610a88565b8181036080830152610b2a818761099f565b905081810360a0830152610b3e818661099f565b905081810360c0830152610b5281856109d8565b9050610b6160e0830184610a6a565b9998505050505050505050565b6000819050602082019050919050565b600081519050919050565b600081519050919050565b6000602082019050919050565b600082825260208201905092915050565b600082825260208201905092915050565b600082825260208201905092915050565b6000610bdf82610bf4565b9050919050565b600061ffff82169050919050565b600073ffffffffffffffffffffffffffffffffffffffff82169050919050565b6000819050919050565b600060ff82169050919050565b60005b83811015610c49578082015181840152602081019050610c2e565b83811115610c58576000848401525b50505050565b60006002820490506001821680610c7657607f821691505b60208210811415610c8a57610c89610d08565b5b50919050565b6000610c9b82610c14565b91507fffffffffffffffffffffffffffffffffffffffffffffffffffffffffffffffff821415610cce57610ccd610cd9565b5b600182019050919050565b7f4e487b7100000000000000000000000000000000000000000000000000000000600052601160045260246000fd5b7f4e487b7100000000000000000000000000000000000000000000000000000000600052602260045260246000fd5b6000601f19601f8301169050919050565b610d5181610bd4565b8114610d5c57600080fd5b50565b610d6881610c14565b8114610d7357600080fd5b5056fea264697066735822122018d383f70030b47f31f7b8b5da73af1b9f7cd2f5bfbe30b921051d238eb89bfb64736f6c63430008000033",
  "immutableReferences": {},
  "source": "pragma solidity 0.8.0;\r\npragma experimental ABIEncoderV2;\r\n\r\nimport \"./EstateFactory.sol\";\r\n\r\ncontract EstateHelper is EstateFactory {\r\n\r\n    function buyEstateById(uint estateId) external payable {\r\n        require(msg.value == estates[estateId].price);\r\n        //Effectuer la transaction d'achat\r\n    }\r\n\r\n    function getEstatesByOwner(address _owner) external view returns(uint[] memory){\r\n    uint[] memory result = new uint[](ownerEstateCount[_owner]);\r\n    uint counter = 0;\r\n    for (uint i=0; i<estates.length; i++) {\r\n        if (estateToOwner[i] == _owner) {\r\n            result[counter] = i;\r\n            counter++;\r\n        }\r\n    }\r\n    return result;\r\n    }\r\n\r\n}\r\n",
  "sourcePath": "C:/Users/marcg/OneDrive/Bureau/ESGI/Blockchain/blockchainBack/contracts/EstateHelper.sol",
  "compiler": {
    "name": "solc",
    "version": "0.8.0+commit.c7dfd78e.Emscripten.clang"
  },
  "schemaVersion": "3.3.3",
  "updatedAt": "2021-01-08T10:17:47.731Z",
  "devdoc": {
    "kind": "dev",
    "methods": {},
    "version": 1
  },
  "userdoc": {
    "kind": "user",
    "methods": {},
    "version": 1
  }
}